{
  "_format": "hh-sol-artifact-1",
  "contractName": "DeepfakeDetection",
  "sourceName": "contracts/contract.sol",
  "abi": [
    {
      "anonymous": false,
      "inputs": [
        {
          "indexed": true,
          "internalType": "address",
          "name": "userAddress",
          "type": "address"
        },
        {
          "indexed": false,
          "internalType": "bytes32",
          "name": "contentHash",
          "type": "bytes32"
        },
        {
          "indexed": false,
          "internalType": "enum DeepfakeDetection.ContentType",
          "name": "contentType",
          "type": "uint8"
        },
        {
          "indexed": false,
          "internalType": "bool",
          "name": "isAI",
          "type": "bool"
        },
        {
          "indexed": false,
          "internalType": "uint256",
          "name": "timestamp",
          "type": "uint256"
        }
      ],
      "name": "ContentUploaded",
      "type": "event"
    },
    {
      "anonymous": false,
      "inputs": [
        {
          "indexed": true,
          "internalType": "address",
          "name": "userAddress",
          "type": "address"
        },
        {
          "indexed": false,
          "internalType": "string",
          "name": "username",
          "type": "string"
        },
        {
          "indexed": false,
          "internalType": "string",
          "name": "email",
          "type": "string"
        },
        {
          "indexed": false,
          "internalType": "uint256",
          "name": "registrationDate",
          "type": "uint256"
        }
      ],
      "name": "UserProfileCreated",
      "type": "event"
    },
    {
      "inputs": [
        {
          "internalType": "address",
          "name": "_userAddress",
          "type": "address"
        }
      ],
      "name": "getAllContents",
      "outputs": [
        {
          "components": [
            {
              "internalType": "bytes32",
              "name": "contentHash",
              "type": "bytes32"
            },
            {
              "internalType": "enum DeepfakeDetection.ContentType",
              "name": "contentType",
              "type": "uint8"
            },
            {
              "internalType": "bool",
              "name": "isAI",
              "type": "bool"
            },
            {
              "internalType": "uint256",
              "name": "timestamp",
              "type": "uint256"
            }
          ],
          "internalType": "struct DeepfakeDetection.Content[]",
          "name": "",
          "type": "tuple[]"
        }
      ],
      "stateMutability": "view",
      "type": "function"
    },
    {
      "inputs": [
        {
          "internalType": "address",
          "name": "_userAddress",
          "type": "address"
        },
        {
          "internalType": "uint256",
          "name": "_index",
          "type": "uint256"
        }
      ],
      "name": "getContentByIndex",
      "outputs": [
        {
          "components": [
            {
              "internalType": "bytes32",
              "name": "contentHash",
              "type": "bytes32"
            },
            {
              "internalType": "enum DeepfakeDetection.ContentType",
              "name": "contentType",
              "type": "uint8"
            },
            {
              "internalType": "bool",
              "name": "isAI",
              "type": "bool"
            },
            {
              "internalType": "uint256",
              "name": "timestamp",
              "type": "uint256"
            }
          ],
          "internalType": "struct DeepfakeDetection.Content",
          "name": "",
          "type": "tuple"
        }
      ],
      "stateMutability": "view",
      "type": "function"
    },
    {
      "inputs": [
        {
          "internalType": "address",
          "name": "_userAddress",
          "type": "address"
        }
      ],
      "name": "getContentCount",
      "outputs": [
        {
          "internalType": "uint256",
          "name": "",
          "type": "uint256"
        }
      ],
      "stateMutability": "view",
      "type": "function"
    },
    {
      "inputs": [
        {
          "internalType": "address",
          "name": "_userAddress",
          "type": "address"
        }
      ],
      "name": "getUserProfile",
      "outputs": [
        {
          "components": [
            {
              "internalType": "address",
              "name": "userAddress",
              "type": "address"
            },
            {
              "internalType": "string",
              "name": "username",
              "type": "string"
            },
            {
              "internalType": "string",
              "name": "email",
              "type": "string"
            },
            {
              "internalType": "uint256",
              "name": "registrationDate",
              "type": "uint256"
            }
          ],
          "internalType": "struct DeepfakeDetection.UserProfile",
          "name": "",
          "type": "tuple"
        }
      ],
      "stateMutability": "view",
      "type": "function"
    },
    {
      "inputs": [
        {
          "internalType": "string",
          "name": "_username",
          "type": "string"
        },
        {
          "internalType": "string",
          "name": "_email",
          "type": "string"
        }
      ],
      "name": "setUserProfile",
      "outputs": [],
      "stateMutability": "nonpayable",
      "type": "function"
    },
    {
      "inputs": [
        {
          "internalType": "bytes32",
          "name": "_contentHash",
          "type": "bytes32"
        },
        {
          "internalType": "enum DeepfakeDetection.ContentType",
          "name": "_contentType",
          "type": "uint8"
        },
        {
          "internalType": "bool",
          "name": "_isAI",
          "type": "bool"
        }
      ],
      "name": "uploadContent",
      "outputs": [],
      "stateMutability": "nonpayable",
      "type": "function"
    },
    {
      "inputs": [
        {
          "internalType": "address",
          "name": "",
          "type": "address"
        },
        {
          "internalType": "uint256",
          "name": "",
          "type": "uint256"
        }
      ],
      "name": "userContents",
      "outputs": [
        {
          "internalType": "bytes32",
          "name": "contentHash",
          "type": "bytes32"
        },
        {
          "internalType": "enum DeepfakeDetection.ContentType",
          "name": "contentType",
          "type": "uint8"
        },
        {
          "internalType": "bool",
          "name": "isAI",
          "type": "bool"
        },
        {
          "internalType": "uint256",
          "name": "timestamp",
          "type": "uint256"
        }
      ],
      "stateMutability": "view",
      "type": "function"
    },
    {
      "inputs": [
        {
          "internalType": "address",
          "name": "",
          "type": "address"
        }
      ],
      "name": "userProfiles",
      "outputs": [
        {
          "internalType": "address",
          "name": "userAddress",
          "type": "address"
        },
        {
          "internalType": "string",
          "name": "username",
          "type": "string"
        },
        {
          "internalType": "string",
          "name": "email",
          "type": "string"
        },
        {
          "internalType": "uint256",
          "name": "registrationDate",
          "type": "uint256"
        }
      ],
      "stateMutability": "view",
      "type": "function"
    }
  ],
  "bytecode": "0x608060405234801561001057600080fd5b50611796806100206000396000f3fe608060405234801561001057600080fd5b50600436106100885760003560e01c80638f3a12221161005b5780638f3a122214610128578063987ee156146101585780639d356b2a14610188578063b2583537146101bb57610088565b8063016363fa1461008d578063138ac789146100a9578063332d56d7146100c5578063364ead29146100f8575b600080fd5b6100a760048036038101906100a29190610f7b565b6101eb565b005b6100c360048036038101906100be9190610f2c565b610314565b005b6100df60048036038101906100da9190610ec7565b610593565b6040516100ef94939291906112f9565b60405180910390f35b610112600480360381019061010d9190610ec7565b6106f3565b60405161011f9190611475565b60405180910390f35b610142600480360381019061013d9190610ec7565b61073f565b60405161014f919061134c565b60405180910390f35b610172600480360381019061016d9190610ec7565b610893565b60405161017f9190611453565b60405180910390f35b6101a2600480360381019061019d9190610ef0565b610a6f565b6040516101b2949392919061136e565b60405180910390f35b6101d560048036038101906101d09190610ef0565b610ad6565b6040516101e29190611438565b60405180910390f35b60008060003373ffffffffffffffffffffffffffffffffffffffff1673ffffffffffffffffffffffffffffffffffffffff1681526020019081526020016000209050338160000160006101000a81548173ffffffffffffffffffffffffffffffffffffffff021916908373ffffffffffffffffffffffffffffffffffffffff16021790555082816001019080519060200190610288929190610cb0565b50818160020190805190602001906102a1929190610cb0565b506000816003015414156102b9574281600301819055505b3373ffffffffffffffffffffffffffffffffffffffff167fedd2b109112c6076587898e8db8e57a2e0f710071c6244a847d093b235cc0ff784848460030154604051610307939291906113b3565b60405180910390a2505050565b600073ffffffffffffffffffffffffffffffffffffffff166000803373ffffffffffffffffffffffffffffffffffffffff1673ffffffffffffffffffffffffffffffffffffffff16815260200190815260200160002060000160009054906101000a900473ffffffffffffffffffffffffffffffffffffffff1673ffffffffffffffffffffffffffffffffffffffff1614156103e5576040517f08c379a00000000000000000000000000000000000000000000000000000000081526004016103dc90611418565b60405180910390fd5b60006040518060800160405280858152602001846003811115610431577f4e487b7100000000000000000000000000000000000000000000000000000000600052602160045260246000fd5b81526020018315158152602001428152509050600160003373ffffffffffffffffffffffffffffffffffffffff1673ffffffffffffffffffffffffffffffffffffffff1681526020019081526020016000208190806001815401808255809150506001900390600052602060002090600302016000909190919091506000820151816000015560208201518160010160006101000a81548160ff02191690836003811115610508577f4e487b7100000000000000000000000000000000000000000000000000000000600052602160045260246000fd5b021790555060408201518160010160016101000a81548160ff0219169083151502179055506060820151816002015550503373ffffffffffffffffffffffffffffffffffffffff167f6dbf87a1e1b2c306d02b627edc9b176943c17d523fbe38477a024e5f4397728c85858542604051610585949392919061136e565b60405180910390a250505050565b60006020528060005260406000206000915090508060000160009054906101000a900473ffffffffffffffffffffffffffffffffffffffff16908060010180546105dc90611610565b80601f016020809104026020016040519081016040528092919081815260200182805461060890611610565b80156106555780601f1061062a57610100808354040283529160200191610655565b820191906000526020600020905b81548152906001019060200180831161063857829003601f168201915b50505050509080600201805461066a90611610565b80601f016020809104026020016040519081016040528092919081815260200182805461069690611610565b80156106e35780601f106106b8576101008083540402835291602001916106e3565b820191906000526020600020905b8154815290600101906020018083116106c657829003601f168201915b5050505050908060030154905084565b6000600160008373ffffffffffffffffffffffffffffffffffffffff1673ffffffffffffffffffffffffffffffffffffffff168152602001908152602001600020805490509050919050565b6060600160008373ffffffffffffffffffffffffffffffffffffffff1673ffffffffffffffffffffffffffffffffffffffff168152602001908152602001600020805480602002602001604051908101604052809291908181526020016000905b828210156108885783829060005260206000209060030201604051806080016040529081600082015481526020016001820160009054906101000a900460ff166003811115610818577f4e487b7100000000000000000000000000000000000000000000000000000000600052602160045260246000fd5b6003811115610850577f4e487b7100000000000000000000000000000000000000000000000000000000600052602160045260246000fd5b81526020016001820160019054906101000a900460ff16151515158152602001600282015481525050815260200190600101906107a0565b505050509050919050565b61089b610d36565b6000808373ffffffffffffffffffffffffffffffffffffffff1673ffffffffffffffffffffffffffffffffffffffff1681526020019081526020016000206040518060800160405290816000820160009054906101000a900473ffffffffffffffffffffffffffffffffffffffff1673ffffffffffffffffffffffffffffffffffffffff1673ffffffffffffffffffffffffffffffffffffffff16815260200160018201805461094a90611610565b80601f016020809104026020016040519081016040528092919081815260200182805461097690611610565b80156109c35780601f10610998576101008083540402835291602001916109c3565b820191906000526020600020905b8154815290600101906020018083116109a657829003601f168201915b505050505081526020016002820180546109dc90611610565b80601f0160208091040260200160405190810160405280929190818152602001828054610a0890611610565b8015610a555780601f10610a2a57610100808354040283529160200191610a55565b820191906000526020600020905b815481529060010190602001808311610a3857829003601f168201915b505050505081526020016003820154815250509050919050565b60016020528160005260406000208181548110610a8b57600080fd5b9060005260206000209060030201600091509150508060000154908060010160009054906101000a900460ff16908060010160019054906101000a900460ff16908060020154905084565b610ade610d74565b600160008473ffffffffffffffffffffffffffffffffffffffff1673ffffffffffffffffffffffffffffffffffffffff168152602001908152602001600020805490508210610b62576040517f08c379a0000000000000000000000000000000000000000000000000000000008152600401610b59906113f8565b60405180910390fd5b600160008473ffffffffffffffffffffffffffffffffffffffff1673ffffffffffffffffffffffffffffffffffffffff1681526020019081526020016000208281548110610bd9577f4e487b7100000000000000000000000000000000000000000000000000000000600052603260045260246000fd5b9060005260206000209060030201604051806080016040529081600082015481526020016001820160009054906101000a900460ff166003811115610c47577f4e487b7100000000000000000000000000000000000000000000000000000000600052602160045260246000fd5b6003811115610c7f577f4e487b7100000000000000000000000000000000000000000000000000000000600052602160045260246000fd5b81526020016001820160019054906101000a900460ff16151515158152602001600282015481525050905092915050565b828054610cbc90611610565b90600052602060002090601f016020900481019282610cde5760008555610d25565b82601f10610cf757805160ff1916838001178555610d25565b82800160010185558215610d25579182015b82811115610d24578251825591602001919060010190610d09565b5b509050610d329190610dd9565b5090565b6040518060800160405280600073ffffffffffffffffffffffffffffffffffffffff1681526020016060815260200160608152602001600081525090565b60405180608001604052806000801916815260200160006003811115610dc3577f4e487b7100000000000000000000000000000000000000000000000000000000600052602160045260246000fd5b8152602001600015158152602001600081525090565b5b80821115610df2576000816000905550600101610dda565b5090565b6000610e09610e04846114c1565b611490565b905082815260208101848484011115610e2157600080fd5b610e2c8482856115ce565b509392505050565b600081359050610e43816116f4565b92915050565b600081359050610e588161170b565b92915050565b600081359050610e6d81611722565b92915050565b600081359050610e8281611739565b92915050565b600082601f830112610e9957600080fd5b8135610ea9848260208601610df6565b91505092915050565b600081359050610ec181611749565b92915050565b600060208284031215610ed957600080fd5b6000610ee784828501610e34565b91505092915050565b60008060408385031215610f0357600080fd5b6000610f1185828601610e34565b9250506020610f2285828601610eb2565b9150509250929050565b600080600060608486031215610f4157600080fd5b6000610f4f86828701610e5e565b9350506020610f6086828701610e73565b9250506040610f7186828701610e49565b9150509250925092565b60008060408385031215610f8e57600080fd5b600083013567ffffffffffffffff811115610fa857600080fd5b610fb485828601610e88565b925050602083013567ffffffffffffffff811115610fd157600080fd5b610fdd85828601610e88565b9150509250929050565b6000610ff383836111c7565b60808301905092915050565b61100881611557565b82525050565b61101781611557565b82525050565b600061102882611501565b6110328185611524565b935061103d836114f1565b8060005b8381101561106e5781516110558882610fe7565b975061106083611517565b925050600181019050611041565b5085935050505092915050565b61108481611569565b82525050565b61109381611569565b82525050565b6110a281611575565b82525050565b6110b181611575565b82525050565b6110c0816115bc565b82525050565b6110cf816115bc565b82525050565b60006110e08261150c565b6110ea8185611535565b93506110fa8185602086016115dd565b611103816116cf565b840191505092915050565b60006111198261150c565b6111238185611546565b93506111338185602086016115dd565b61113c816116cf565b840191505092915050565b6000611154600e83611546565b91507f496e76616c696420696e6465782e0000000000000000000000000000000000006000830152602082019050919050565b6000611194601c83611546565b91507f557365722070726f66696c6520646f6573206e6f742065786973742e000000006000830152602082019050919050565b6080820160008201516111dd6000850182611099565b5060208201516111f060208501826110b7565b506040820151611203604085018261107b565b50606082015161121660608501826112db565b50505050565b6080820160008201516112326000850182611099565b50602082015161124560208501826110b7565b506040820151611258604085018261107b565b50606082015161126b60608501826112db565b50505050565b60006080830160008301516112896000860182610fff565b50602083015184820360208601526112a182826110d5565b915050604083015184820360408601526112bb82826110d5565b91505060608301516112d060608601826112db565b508091505092915050565b6112e4816115b2565b82525050565b6112f3816115b2565b82525050565b600060808201905061130e600083018761100e565b8181036020830152611320818661110e565b90508181036040830152611334818561110e565b905061134360608301846112ea565b95945050505050565b60006020820190508181036000830152611366818461101d565b905092915050565b600060808201905061138360008301876110a8565b61139060208301866110c6565b61139d604083018561108a565b6113aa60608301846112ea565b95945050505050565b600060608201905081810360008301526113cd818661110e565b905081810360208301526113e1818561110e565b90506113f060408301846112ea565b949350505050565b6000602082019050818103600083015261141181611147565b9050919050565b6000602082019050818103600083015261143181611187565b9050919050565b600060808201905061144d600083018461121c565b92915050565b6000602082019050818103600083015261146d8184611271565b905092915050565b600060208201905061148a60008301846112ea565b92915050565b6000604051905081810181811067ffffffffffffffff821117156114b7576114b66116a0565b5b8060405250919050565b600067ffffffffffffffff8211156114dc576114db6116a0565b5b601f19601f8301169050602081019050919050565b6000819050602082019050919050565b600081519050919050565b600081519050919050565b6000602082019050919050565b600082825260208201905092915050565b600082825260208201905092915050565b600082825260208201905092915050565b600061156282611592565b9050919050565b60008115159050919050565b6000819050919050565b600081905061158d826116e0565b919050565b600073ffffffffffffffffffffffffffffffffffffffff82169050919050565b6000819050919050565b60006115c78261157f565b9050919050565b82818337600083830152505050565b60005b838110156115fb5780820151818401526020810190506115e0565b8381111561160a576000848401525b50505050565b6000600282049050600182168061162857607f821691505b6020821081141561163c5761163b611671565b5b50919050565b7f4e487b7100000000000000000000000000000000000000000000000000000000600052602160045260246000fd5b7f4e487b7100000000000000000000000000000000000000000000000000000000600052602260045260246000fd5b7f4e487b7100000000000000000000000000000000000000000000000000000000600052604160045260246000fd5b6000601f19601f8301169050919050565b600481106116f1576116f0611642565b5b50565b6116fd81611557565b811461170857600080fd5b50565b61171481611569565b811461171f57600080fd5b50565b61172b81611575565b811461173657600080fd5b50565b6004811061174657600080fd5b50565b611752816115b2565b811461175d57600080fd5b5056fea264697066735822122008f95702fdfef0ea78b435d0c5dafb740b96591059dd0a0d3cd8e3151e92e72764736f6c63430008000033",
  "linkReferences": {},
  "deployedLinkReferences": {}
}